{
  "address": "0x16A76d3cd3C1e3CE843C6680d6B37E9116b5C706",
  "abi": [
    {
      "inputs": [
        {
          "internalType": "address",
          "name": "_forwarder",
          "type": "address"
        },
        {
          "internalType": "address",
          "name": "_factoryRegistry",
          "type": "address"
        },
        {
          "internalType": "address",
          "name": "_factory",
          "type": "address"
        }
      ],
      "stateMutability": "nonpayable",
      "type": "constructor"
    },
    {
      "inputs": [],
      "name": "Expired",
      "type": "error"
    },
    {
      "inputs": [],
      "name": "InsufficientAmount",
      "type": "error"
    },
    {
      "inputs": [],
      "name": "InsufficientAmountA",
      "type": "error"
    },
    {
      "inputs": [],
      "name": "InsufficientAmountADesired",
      "type": "error"
    },
    {
      "inputs": [],
      "name": "InsufficientAmountAOptimal",
      "type": "error"
    },
    {
      "inputs": [],
      "name": "InsufficientAmountB",
      "type": "error"
    },
    {
      "inputs": [],
      "name": "InsufficientAmountBDesired",
      "type": "error"
    },
    {
      "inputs": [],
      "name": "InsufficientLiquidity",
      "type": "error"
    },
    {
      "inputs": [],
      "name": "InsufficientOutputAmount",
      "type": "error"
    },
    {
      "inputs": [],
      "name": "InvalidPath",
      "type": "error"
    },
    {
      "inputs": [],
      "name": "InvalidRouteA",
      "type": "error"
    },
    {
      "inputs": [],
      "name": "InvalidRouteB",
      "type": "error"
    },
    {
      "inputs": [],
      "name": "NotDeployer",
      "type": "error"
    },
    {
      "inputs": [],
      "name": "PoolDoesNotExist",
      "type": "error"
    },
    {
      "inputs": [],
      "name": "PoolFactoryDoesNotExist",
      "type": "error"
    },
    {
      "inputs": [],
      "name": "SameAddresses",
      "type": "error"
    },
    {
      "inputs": [],
      "name": "VoterAlreadyInitialized",
      "type": "error"
    },
    {
      "inputs": [],
      "name": "VoterNotInitialized",
      "type": "error"
    },
    {
      "inputs": [],
      "name": "ZeroAddress",
      "type": "error"
    },
    {
      "inputs": [
        {
          "internalType": "uint256[]",
          "name": "amounts",
          "type": "uint256[]"
        },
        {
          "components": [
            {
              "internalType": "address",
              "name": "from",
              "type": "address"
            },
            {
              "internalType": "address",
              "name": "to",
              "type": "address"
            },
            {
              "internalType": "bool",
              "name": "stable",
              "type": "bool"
            },
            {
              "internalType": "address",
              "name": "factory",
              "type": "address"
            }
          ],
          "internalType": "struct IRouter.Route[]",
          "name": "routes",
          "type": "tuple[]"
        },
        {
          "internalType": "address",
          "name": "to",
          "type": "address"
        },
        {
          "internalType": "uint256",
          "name": "deadline",
          "type": "uint256"
        }
      ],
      "name": "UNSAFE_swapExactTokensForTokens",
      "outputs": [
        {
          "internalType": "uint256[]",
          "name": "",
          "type": "uint256[]"
        }
      ],
      "stateMutability": "nonpayable",
      "type": "function"
    },
    {
      "inputs": [
        {
          "internalType": "address",
          "name": "tokenA",
          "type": "address"
        },
        {
          "internalType": "address",
          "name": "tokenB",
          "type": "address"
        },
        {
          "internalType": "bool",
          "name": "stable",
          "type": "bool"
        },
        {
          "internalType": "uint256",
          "name": "amountADesired",
          "type": "uint256"
        },
        {
          "internalType": "uint256",
          "name": "amountBDesired",
          "type": "uint256"
        },
        {
          "internalType": "uint256",
          "name": "amountAMin",
          "type": "uint256"
        },
        {
          "internalType": "uint256",
          "name": "amountBMin",
          "type": "uint256"
        },
        {
          "internalType": "address",
          "name": "to",
          "type": "address"
        },
        {
          "internalType": "uint256",
          "name": "deadline",
          "type": "uint256"
        }
      ],
      "name": "addLiquidity",
      "outputs": [
        {
          "internalType": "uint256",
          "name": "amountA",
          "type": "uint256"
        },
        {
          "internalType": "uint256",
          "name": "amountB",
          "type": "uint256"
        },
        {
          "internalType": "uint256",
          "name": "liquidity",
          "type": "uint256"
        }
      ],
      "stateMutability": "nonpayable",
      "type": "function"
    },
    {
      "inputs": [],
      "name": "defaultFactory",
      "outputs": [
        {
          "internalType": "address",
          "name": "",
          "type": "address"
        }
      ],
      "stateMutability": "view",
      "type": "function"
    },
    {
      "inputs": [],
      "name": "deployer",
      "outputs": [
        {
          "internalType": "address",
          "name": "",
          "type": "address"
        }
      ],
      "stateMutability": "view",
      "type": "function"
    },
    {
      "inputs": [],
      "name": "factoryRegistry",
      "outputs": [
        {
          "internalType": "address",
          "name": "",
          "type": "address"
        }
      ],
      "stateMutability": "view",
      "type": "function"
    },
    {
      "inputs": [
        {
          "internalType": "address",
          "name": "tokenA",
          "type": "address"
        },
        {
          "internalType": "address",
          "name": "tokenB",
          "type": "address"
        },
        {
          "internalType": "bool",
          "name": "stable",
          "type": "bool"
        },
        {
          "internalType": "address",
          "name": "_factory",
          "type": "address"
        },
        {
          "internalType": "uint256",
          "name": "amountInA",
          "type": "uint256"
        },
        {
          "internalType": "uint256",
          "name": "amountInB",
          "type": "uint256"
        },
        {
          "components": [
            {
              "internalType": "address",
              "name": "from",
              "type": "address"
            },
            {
              "internalType": "address",
              "name": "to",
              "type": "address"
            },
            {
              "internalType": "bool",
              "name": "stable",
              "type": "bool"
            },
            {
              "internalType": "address",
              "name": "factory",
              "type": "address"
            }
          ],
          "internalType": "struct IRouter.Route[]",
          "name": "routesA",
          "type": "tuple[]"
        },
        {
          "components": [
            {
              "internalType": "address",
              "name": "from",
              "type": "address"
            },
            {
              "internalType": "address",
              "name": "to",
              "type": "address"
            },
            {
              "internalType": "bool",
              "name": "stable",
              "type": "bool"
            },
            {
              "internalType": "address",
              "name": "factory",
              "type": "address"
            }
          ],
          "internalType": "struct IRouter.Route[]",
          "name": "routesB",
          "type": "tuple[]"
        }
      ],
      "name": "generateZapInParams",
      "outputs": [
        {
          "internalType": "uint256",
          "name": "amountOutMinA",
          "type": "uint256"
        },
        {
          "internalType": "uint256",
          "name": "amountOutMinB",
          "type": "uint256"
        },
        {
          "internalType": "uint256",
          "name": "amountAMin",
          "type": "uint256"
        },
        {
          "internalType": "uint256",
          "name": "amountBMin",
          "type": "uint256"
        }
      ],
      "stateMutability": "view",
      "type": "function"
    },
    {
      "inputs": [
        {
          "internalType": "address",
          "name": "tokenA",
          "type": "address"
        },
        {
          "internalType": "address",
          "name": "tokenB",
          "type": "address"
        },
        {
          "internalType": "bool",
          "name": "stable",
          "type": "bool"
        },
        {
          "internalType": "address",
          "name": "_factory",
          "type": "address"
        },
        {
          "internalType": "uint256",
          "name": "liquidity",
          "type": "uint256"
        },
        {
          "components": [
            {
              "internalType": "address",
              "name": "from",
              "type": "address"
            },
            {
              "internalType": "address",
              "name": "to",
              "type": "address"
            },
            {
              "internalType": "bool",
              "name": "stable",
              "type": "bool"
            },
            {
              "internalType": "address",
              "name": "factory",
              "type": "address"
            }
          ],
          "internalType": "struct IRouter.Route[]",
          "name": "routesA",
          "type": "tuple[]"
        },
        {
          "components": [
            {
              "internalType": "address",
              "name": "from",
              "type": "address"
            },
            {
              "internalType": "address",
              "name": "to",
              "type": "address"
            },
            {
              "internalType": "bool",
              "name": "stable",
              "type": "bool"
            },
            {
              "internalType": "address",
              "name": "factory",
              "type": "address"
            }
          ],
          "internalType": "struct IRouter.Route[]",
          "name": "routesB",
          "type": "tuple[]"
        }
      ],
      "name": "generateZapOutParams",
      "outputs": [
        {
          "internalType": "uint256",
          "name": "amountOutMinA",
          "type": "uint256"
        },
        {
          "internalType": "uint256",
          "name": "amountOutMinB",
          "type": "uint256"
        },
        {
          "internalType": "uint256",
          "name": "amountAMin",
          "type": "uint256"
        },
        {
          "internalType": "uint256",
          "name": "amountBMin",
          "type": "uint256"
        }
      ],
      "stateMutability": "view",
      "type": "function"
    },
    {
      "inputs": [
        {
          "internalType": "uint256",
          "name": "amountIn",
          "type": "uint256"
        },
        {
          "components": [
            {
              "internalType": "address",
              "name": "from",
              "type": "address"
            },
            {
              "internalType": "address",
              "name": "to",
              "type": "address"
            },
            {
              "internalType": "bool",
              "name": "stable",
              "type": "bool"
            },
            {
              "internalType": "address",
              "name": "factory",
              "type": "address"
            }
          ],
          "internalType": "struct IRouter.Route[]",
          "name": "routes",
          "type": "tuple[]"
        }
      ],
      "name": "getAmountsOut",
      "outputs": [
        {
          "internalType": "uint256[]",
          "name": "amounts",
          "type": "uint256[]"
        }
      ],
      "stateMutability": "view",
      "type": "function"
    },
    {
      "inputs": [
        {
          "internalType": "address",
          "name": "tokenA",
          "type": "address"
        },
        {
          "internalType": "address",
          "name": "tokenB",
          "type": "address"
        },
        {
          "internalType": "bool",
          "name": "stable",
          "type": "bool"
        },
        {
          "internalType": "address",
          "name": "_factory",
          "type": "address"
        }
      ],
      "name": "getReserves",
      "outputs": [
        {
          "internalType": "uint256",
          "name": "reserveA",
          "type": "uint256"
        },
        {
          "internalType": "uint256",
          "name": "reserveB",
          "type": "uint256"
        }
      ],
      "stateMutability": "view",
      "type": "function"
    },
    {
      "inputs": [
        {
          "internalType": "address",
          "name": "_voter",
          "type": "address"
        }
      ],
      "name": "initializeVoter",
      "outputs": [],
      "stateMutability": "nonpayable",
      "type": "function"
    },
    {
      "inputs": [
        {
          "internalType": "address",
          "name": "forwarder",
          "type": "address"
        }
      ],
      "name": "isTrustedForwarder",
      "outputs": [
        {
          "internalType": "bool",
          "name": "",
          "type": "bool"
        }
      ],
      "stateMutability": "view",
      "type": "function"
    },
    {
      "inputs": [
        {
          "internalType": "address",
          "name": "tokenA",
          "type": "address"
        },
        {
          "internalType": "address",
          "name": "tokenB",
          "type": "address"
        },
        {
          "internalType": "bool",
          "name": "stable",
          "type": "bool"
        },
        {
          "internalType": "address",
          "name": "_factory",
          "type": "address"
        }
      ],
      "name": "poolFor",
      "outputs": [
        {
          "internalType": "address",
          "name": "pool",
          "type": "address"
        }
      ],
      "stateMutability": "view",
      "type": "function"
    },
    {
      "inputs": [
        {
          "internalType": "address",
          "name": "tokenA",
          "type": "address"
        },
        {
          "internalType": "address",
          "name": "tokenB",
          "type": "address"
        },
        {
          "internalType": "bool",
          "name": "stable",
          "type": "bool"
        },
        {
          "internalType": "address",
          "name": "_factory",
          "type": "address"
        },
        {
          "internalType": "uint256",
          "name": "amountADesired",
          "type": "uint256"
        },
        {
          "internalType": "uint256",
          "name": "amountBDesired",
          "type": "uint256"
        }
      ],
      "name": "quoteAddLiquidity",
      "outputs": [
        {
          "internalType": "uint256",
          "name": "amountA",
          "type": "uint256"
        },
        {
          "internalType": "uint256",
          "name": "amountB",
          "type": "uint256"
        },
        {
          "internalType": "uint256",
          "name": "liquidity",
          "type": "uint256"
        }
      ],
      "stateMutability": "view",
      "type": "function"
    },
    {
      "inputs": [
        {
          "internalType": "address",
          "name": "tokenA",
          "type": "address"
        },
        {
          "internalType": "address",
          "name": "tokenB",
          "type": "address"
        },
        {
          "internalType": "bool",
          "name": "stable",
          "type": "bool"
        },
        {
          "internalType": "address",
          "name": "_factory",
          "type": "address"
        },
        {
          "internalType": "uint256",
          "name": "liquidity",
          "type": "uint256"
        }
      ],
      "name": "quoteRemoveLiquidity",
      "outputs": [
        {
          "internalType": "uint256",
          "name": "amountA",
          "type": "uint256"
        },
        {
          "internalType": "uint256",
          "name": "amountB",
          "type": "uint256"
        }
      ],
      "stateMutability": "view",
      "type": "function"
    },
    {
      "inputs": [
        {
          "internalType": "address",
          "name": "tokenA",
          "type": "address"
        },
        {
          "internalType": "address",
          "name": "tokenB",
          "type": "address"
        },
        {
          "internalType": "address",
          "name": "_factory",
          "type": "address"
        }
      ],
      "name": "quoteStableLiquidityRatio",
      "outputs": [
        {
          "internalType": "uint256",
          "name": "ratio",
          "type": "uint256"
        }
      ],
      "stateMutability": "view",
      "type": "function"
    },
    {
      "inputs": [
        {
          "internalType": "address",
          "name": "tokenA",
          "type": "address"
        },
        {
          "internalType": "address",
          "name": "tokenB",
          "type": "address"
        },
        {
          "internalType": "bool",
          "name": "stable",
          "type": "bool"
        },
        {
          "internalType": "uint256",
          "name": "liquidity",
          "type": "uint256"
        },
        {
          "internalType": "uint256",
          "name": "amountAMin",
          "type": "uint256"
        },
        {
          "internalType": "uint256",
          "name": "amountBMin",
          "type": "uint256"
        },
        {
          "internalType": "address",
          "name": "to",
          "type": "address"
        },
        {
          "internalType": "uint256",
          "name": "deadline",
          "type": "uint256"
        }
      ],
      "name": "removeLiquidity",
      "outputs": [
        {
          "internalType": "uint256",
          "name": "amountA",
          "type": "uint256"
        },
        {
          "internalType": "uint256",
          "name": "amountB",
          "type": "uint256"
        }
      ],
      "stateMutability": "nonpayable",
      "type": "function"
    },
    {
      "inputs": [
        {
          "internalType": "address",
          "name": "tokenA",
          "type": "address"
        },
        {
          "internalType": "address",
          "name": "tokenB",
          "type": "address"
        }
      ],
      "name": "sortTokens",
      "outputs": [
        {
          "internalType": "address",
          "name": "token0",
          "type": "address"
        },
        {
          "internalType": "address",
          "name": "token1",
          "type": "address"
        }
      ],
      "stateMutability": "pure",
      "type": "function"
    },
    {
      "inputs": [
        {
          "internalType": "uint256",
          "name": "amountIn",
          "type": "uint256"
        },
        {
          "internalType": "uint256",
          "name": "amountOutMin",
          "type": "uint256"
        },
        {
          "components": [
            {
              "internalType": "address",
              "name": "from",
              "type": "address"
            },
            {
              "internalType": "address",
              "name": "to",
              "type": "address"
            },
            {
              "internalType": "bool",
              "name": "stable",
              "type": "bool"
            },
            {
              "internalType": "address",
              "name": "factory",
              "type": "address"
            }
          ],
          "internalType": "struct IRouter.Route[]",
          "name": "routes",
          "type": "tuple[]"
        },
        {
          "internalType": "address",
          "name": "to",
          "type": "address"
        },
        {
          "internalType": "uint256",
          "name": "deadline",
          "type": "uint256"
        }
      ],
      "name": "swapExactTokensForTokens",
      "outputs": [
        {
          "internalType": "uint256[]",
          "name": "amounts",
          "type": "uint256[]"
        }
      ],
      "stateMutability": "nonpayable",
      "type": "function"
    },
    {
      "inputs": [
        {
          "internalType": "uint256",
          "name": "amountIn",
          "type": "uint256"
        },
        {
          "internalType": "uint256",
          "name": "amountOutMin",
          "type": "uint256"
        },
        {
          "components": [
            {
              "internalType": "address",
              "name": "from",
              "type": "address"
            },
            {
              "internalType": "address",
              "name": "to",
              "type": "address"
            },
            {
              "internalType": "bool",
              "name": "stable",
              "type": "bool"
            },
            {
              "internalType": "address",
              "name": "factory",
              "type": "address"
            }
          ],
          "internalType": "struct IRouter.Route[]",
          "name": "routes",
          "type": "tuple[]"
        },
        {
          "internalType": "address",
          "name": "to",
          "type": "address"
        },
        {
          "internalType": "uint256",
          "name": "deadline",
          "type": "uint256"
        }
      ],
      "name": "swapExactTokensForTokensSupportingFeeOnTransferTokens",
      "outputs": [],
      "stateMutability": "nonpayable",
      "type": "function"
    },
    {
      "inputs": [],
      "name": "voter",
      "outputs": [
        {
          "internalType": "address",
          "name": "",
          "type": "address"
        }
      ],
      "stateMutability": "view",
      "type": "function"
    },
    {
      "inputs": [
        {
          "internalType": "address",
          "name": "tokenIn",
          "type": "address"
        },
        {
          "internalType": "uint256",
          "name": "amountInA",
          "type": "uint256"
        },
        {
          "internalType": "uint256",
          "name": "amountInB",
          "type": "uint256"
        },
        {
          "components": [
            {
              "internalType": "address",
              "name": "tokenA",
              "type": "address"
            },
            {
              "internalType": "address",
              "name": "tokenB",
              "type": "address"
            },
            {
              "internalType": "bool",
              "name": "stable",
              "type": "bool"
            },
            {
              "internalType": "address",
              "name": "factory",
              "type": "address"
            },
            {
              "internalType": "uint256",
              "name": "amountOutMinA",
              "type": "uint256"
            },
            {
              "internalType": "uint256",
              "name": "amountOutMinB",
              "type": "uint256"
            },
            {
              "internalType": "uint256",
              "name": "amountAMin",
              "type": "uint256"
            },
            {
              "internalType": "uint256",
              "name": "amountBMin",
              "type": "uint256"
            }
          ],
          "internalType": "struct IRouter.Zap",
          "name": "zapInPool",
          "type": "tuple"
        },
        {
          "components": [
            {
              "internalType": "address",
              "name": "from",
              "type": "address"
            },
            {
              "internalType": "address",
              "name": "to",
              "type": "address"
            },
            {
              "internalType": "bool",
              "name": "stable",
              "type": "bool"
            },
            {
              "internalType": "address",
              "name": "factory",
              "type": "address"
            }
          ],
          "internalType": "struct IRouter.Route[]",
          "name": "routesA",
          "type": "tuple[]"
        },
        {
          "components": [
            {
              "internalType": "address",
              "name": "from",
              "type": "address"
            },
            {
              "internalType": "address",
              "name": "to",
              "type": "address"
            },
            {
              "internalType": "bool",
              "name": "stable",
              "type": "bool"
            },
            {
              "internalType": "address",
              "name": "factory",
              "type": "address"
            }
          ],
          "internalType": "struct IRouter.Route[]",
          "name": "routesB",
          "type": "tuple[]"
        },
        {
          "internalType": "address",
          "name": "to",
          "type": "address"
        },
        {
          "internalType": "bool",
          "name": "stake",
          "type": "bool"
        }
      ],
      "name": "zapIn",
      "outputs": [
        {
          "internalType": "uint256",
          "name": "liquidity",
          "type": "uint256"
        }
      ],
      "stateMutability": "nonpayable",
      "type": "function"
    },
    {
      "inputs": [
        {
          "internalType": "address",
          "name": "tokenOut",
          "type": "address"
        },
        {
          "internalType": "uint256",
          "name": "liquidity",
          "type": "uint256"
        },
        {
          "components": [
            {
              "internalType": "address",
              "name": "tokenA",
              "type": "address"
            },
            {
              "internalType": "address",
              "name": "tokenB",
              "type": "address"
            },
            {
              "internalType": "bool",
              "name": "stable",
              "type": "bool"
            },
            {
              "internalType": "address",
              "name": "factory",
              "type": "address"
            },
            {
              "internalType": "uint256",
              "name": "amountOutMinA",
              "type": "uint256"
            },
            {
              "internalType": "uint256",
              "name": "amountOutMinB",
              "type": "uint256"
            },
            {
              "internalType": "uint256",
              "name": "amountAMin",
              "type": "uint256"
            },
            {
              "internalType": "uint256",
              "name": "amountBMin",
              "type": "uint256"
            }
          ],
          "internalType": "struct IRouter.Zap",
          "name": "zapOutPool",
          "type": "tuple"
        },
        {
          "components": [
            {
              "internalType": "address",
              "name": "from",
              "type": "address"
            },
            {
              "internalType": "address",
              "name": "to",
              "type": "address"
            },
            {
              "internalType": "bool",
              "name": "stable",
              "type": "bool"
            },
            {
              "internalType": "address",
              "name": "factory",
              "type": "address"
            }
          ],
          "internalType": "struct IRouter.Route[]",
          "name": "routesA",
          "type": "tuple[]"
        },
        {
          "components": [
            {
              "internalType": "address",
              "name": "from",
              "type": "address"
            },
            {
              "internalType": "address",
              "name": "to",
              "type": "address"
            },
            {
              "internalType": "bool",
              "name": "stable",
              "type": "bool"
            },
            {
              "internalType": "address",
              "name": "factory",
              "type": "address"
            }
          ],
          "internalType": "struct IRouter.Route[]",
          "name": "routesB",
          "type": "tuple[]"
        }
      ],
      "name": "zapOut",
      "outputs": [],
      "stateMutability": "nonpayable",
      "type": "function"
    }
  ],
  "transactionHash": "0x262f46c86f9f00f67e4a9bf5818652c8ed31a7867cdb10fb56e58f00eef509d0",
  "args": [
    "0xE6F919e62c370Ef04EDF4cA5E2a901Ea1aa87085",
    "0x265054F72bAD343FDEE3e018269cbB899e2E2ec5",
    "0x83FE469C636C4081b87bA5b3Ae9991c6Ed104248"
  ],
  "numDeployments": 1,
  "solcInputHash": "6eb2a61a7d9381df4341f3ceb294b780",
  "bytecode": "0x6101006040523480156200001257600080fd5b5060405162004897380380620048978339810160408190526200003591620000b3565b6001600160a01b0380841660805282811660a052811660c052620000586200006e565b6001600160a01b031660e05250620000fd915050565b6080516000906001600160a01b0316330362000091575060131936013560601c90565b503390565b80516001600160a01b0381168114620000ae57600080fd5b919050565b600080600060608486031215620000c957600080fd5b620000d48462000096565b9250620000e46020850162000096565b9150620000f46040850162000096565b90509250925092565b60805160a05160c05160e051614721620001766000396000818161037e015261160b0152600081816103570152818161052d0152818161096e01528181610ba901528181610db401528181612556015281816125f701526126810152600081816101ac0152610e0501526000610b4c01526147216000f3fe608060405234801561001057600080fd5b50600436106101425760003560e01c806388cd821e116100b8578063cac88ea91161007c578063cac88ea91461032c578063ce700c291461033f578063d4b6846d14610352578063d5f3948814610379578063f5ba53c7146103a0578063fb49bafd146103c157600080fd5b806388cd821e146102cb5780638c0037dc146102e0578063a81b9159146102f3578063c1138ad814610306578063c92de3ec1461031957600080fd5b8063544caa561161010a578063544caa561461020e5780635509a1ac14610241578063572b6c05146102545780635a47ddc3146102775780637539d413146102a5578063874029d9146102b857600080fd5b806307db50fa146101475780630dede6c41461017f5780633bf0c9fb146101a75780634111d597146101db57806346c96aac146101fb575b600080fd5b61015a6101553660046139cd565b6103d4565b6040805194855260208501939093529183015260608201526080015b60405180910390f35b61019261018d366004613a9d565b610516565b60408051928352602083019190915201610176565b6101ce7f000000000000000000000000000000000000000000000000000000000000000081565b6040516101769190613b22565b6101ee6101e9366004613b9f565b610670565b6040516101769190613c7b565b6000546101ce906001600160a01b031681565b61022161021c366004613cbf565b6107e5565b604080516001600160a01b03938416815292909116602083015201610176565b6101ee61024f366004613d80565b610870565b610267610262366004613e2c565b610b4a565b6040519015158152602001610176565b61028a610285366004613e49565b610b7c565b60408051938452602084019290925290820152606001610176565b61015a6102b3366004613ed8565b610c77565b6101ce6102c6366004613f9d565b610db0565b6102de6102d9366004613ff9565b610fc9565b005b6101926102ee366004613f9d565b611273565b6102de610301366004614084565b61132d565b6102de610314366004613e2c565b611609565b610192610327366004614124565b6116d5565b6101ee61033a366004613ff9565b61181e565b61028a61034d366004614188565b61197f565b6101ce7f000000000000000000000000000000000000000000000000000000000000000081565b6101ce7f000000000000000000000000000000000000000000000000000000000000000081565b6103b36103ae3660046141f6565b611b61565b604051908152602001610176565b6103b36103cf366004614241565b611dd2565b8585600080606087156104695761043d8b8a8a808060200260200160405190810160405280939291908181526020016000905b828210156104335761042460808302860136819003810190614312565b81526020019060010190610407565b5050505050610870565b9050806001825161044e9190614344565b8151811061045e5761045e614357565b602002602001015194505b85156104ed576104c18a8888808060200260200160405190810160405280939291908181526020016000905b82821015610433576104b260808302860136819003810190614312565b81526020019060010190610495565b905080600182516104d29190614344565b815181106104e2576104e2614357565b602002602001015193505b6104fb8f8f8f8f898961197f565b508093508194505050509a509a509a509a9650505050505050565b60008082610523816120ae565b60006105518c8c8c7f0000000000000000000000000000000000000000000000000000000000000000610db0565b905061057061055e6120d2565b6001600160a01b03831690838c6120f4565b600080826001600160a01b03166389afcb44896040518263ffffffff1660e01b815260040161059f9190613b22565b60408051808303816000875af11580156105bd573d6000803e3d6000fd5b505050506040513d601f19601f820116820180604052508101906105e1919061436d565b9150915060006105f18f8f6107e5565b509050806001600160a01b03168f6001600160a01b031614610614578183610617565b82825b90975095508a87101561063d576040516323d9bb0560e21b815260040160405180910390fd5b8986101561065e57604051630d32418960e21b815260040160405180910390fd5b50505050509850989650505050505050565b60608161067c816120ae565b61077d8686600081811061069257610692614357565b6106a89260206080909202019081019150613e2c565b6106b06120d2565b61075d898960008181106106c6576106c6614357565b6106dc9260206080909202019081019150613e2c565b8a8a60008181106106ef576106ef614357565b90506080020160200160208101906107079190613e2c565b8b8b600081811061071a5761071a614357565b90506080020160400160208101906107329190614391565b8c8c600081811061074557610745614357565b90506080020160600160208101906102c69190613e2c565b8a60008151811061077057610770614357565b6020026020010151612152565b6107da878787808060200260200160405190810160405280939291908181526020016000905b828210156107cf576107c060808302860136819003810190614312565b815260200190600101906107a3565b50505050508661224e565b509495945050505050565b600080826001600160a01b0316846001600160a01b03160361081a57604051633295f3fd60e21b815260040160405180910390fd5b826001600160a01b0316846001600160a01b03161061083a57828461083d565b83835b90925090506001600160a01b0382166108695760405163d92e233d60e01b815260040160405180910390fd5b9250929050565b6060600182511015610895576040516320db826760e01b815260040160405180910390fd5b81516108a29060016143ae565b6001600160401b038111156108b9576108b9613b36565b6040519080825280602002602001820160405280156108e2578160200160208202803683370190505b50905082816000815181106108f9576108f9614357565b6020908102919091010152815160005b81811015610b42576000806001600160a01b031685838151811061092f5761092f614357565b6020026020010151606001516001600160a01b03161461096c5784828151811061095b5761095b614357565b60200260200101516060015161098e565b7f00000000000000000000000000000000000000000000000000000000000000005b905060006109f58684815181106109a7576109a7614357565b6020026020010151600001518785815181106109c5576109c5614357565b6020026020010151602001518886815181106109e3576109e3614357565b60200260200101516040015185610db0565b604051635b16ebb760e01b81529091506001600160a01b03831690635b16ebb790610a24908490600401613b22565b602060405180830381865afa158015610a41573d6000803e3d6000fd5b505050506040513d601f19601f82011682018060405250810190610a6591906143c1565b15610b3857806001600160a01b031663f140a35a868581518110610a8b57610a8b614357565b6020026020010151888681518110610aa557610aa5614357565b6020026020010151600001516040518363ffffffff1660e01b8152600401610ace9291906143de565b602060405180830381865afa158015610aeb573d6000803e3d6000fd5b505050506040513d601f19601f82011682018060405250810190610b0f91906143f5565b85610b1b8560016143ae565b81518110610b2b57610b2b614357565b6020026020010181815250505b5050600101610909565b505092915050565b7f00000000000000000000000000000000000000000000000000000000000000006001600160a01b0390811691161490565b600080600083610b8b816120ae565b610b9a8d8d8d8d8d8d8d6124f7565b90945092506000610bcd8e8e8e7f0000000000000000000000000000000000000000000000000000000000000000610db0565b9050610be28e610bdb6120d2565b8388612152565b610bf58d610bee6120d2565b8387612152565b6040516335313c2160e11b81526001600160a01b03821690636a62784290610c21908a90600401613b22565b6020604051808303816000875af1158015610c40573d6000803e3d6000fd5b505050506040513d601f19601f82011682018060405250810190610c6491906143f5565b9250505099509950999650505050505050565b600080600080610c8a8d8d8d8d8d6116d5565b909450925083915082905060608715610d1b57610cef838a8a808060200260200160405190810160405280939291908181526020016000905b8282101561043357610ce060808302860136819003810190614312565b81526020019060010190610cc3565b90508060018251610d009190614344565b81518110610d1057610d10614357565b602002602001015194505b8515610d9f57610d73828888808060200260200160405190810160405280939291908181526020016000905b8282101561043357610d6460808302860136819003810190614312565b81526020019060010190610d47565b90508060018251610d849190614344565b81518110610d9457610d94614357565b602002602001015193505b509950995099509995505050505050565b60007f0000000000000000000000000000000000000000000000000000000000000000816001600160a01b03841615610de95783610deb565b815b60405163d1ea0a1d60e01b81529091506001600160a01b037f0000000000000000000000000000000000000000000000000000000000000000169063d1ea0a1d90610e3a908490600401613b22565b602060405180830381865afa158015610e57573d6000803e3d6000fd5b505050506040513d601f19601f82011682018060405250810190610e7b91906143c1565b610e9857604051634d39d5a360e11b815260040160405180910390fd5b600080610ea589896107e5565b6040516bffffffffffffffffffffffff19606084811b8216602084015283901b16603482015289151560f81b60488201529193509150600090604901604051602081830303815290604052805190602001209050610fbb846001600160a01b0316635c60da1b6040518163ffffffff1660e01b8152600401602060405180830381865afa158015610f3a573d6000803e3d6000fd5b505050506040513d601f19601f82011682018060405250810190610f5e919061440e565b604051603881018790526f5af43d82803e903d91602b57fd5bf3ff60248201526014810191909152733d602d80600a3d3981f3363d3d373d3d3d363d738152605881018390526037600c8201206078820152605560439091012090565b9a9950505050505050505050565b80610fd3816120ae565b6110a285856000818110610fe957610fe9614357565b610fff9260206080909202019081019150613e2c565b6110076120d2565b61109c8888600081811061101d5761101d614357565b6110339260206080909202019081019150613e2c565b8989600081811061104657611046614357565b905060800201602001602081019061105e9190613e2c565b8a8a600081811061107157611071614357565b90506080020160400160208101906110899190614391565b8b8b600081811061074557610745614357565b8a612152565b60006110af600186614344565b905060008686838181106110c5576110c5614357565b90506080020160200160208101906110dd9190613e2c565b6001600160a01b03166370a08231866040518263ffffffff1660e01b81526004016111089190613b22565b602060405180830381865afa158015611125573d6000803e3d6000fd5b505050506040513d601f19601f8201168201806040525081019061114991906143f5565b90506111a78787808060200260200160405190810160405280939291908181526020016000905b8282101561119c5761118d60808302860136819003810190614312565b81526020019060010190611170565b505050505086612760565b87818888858181106111bb576111bb614357565b90506080020160200160208101906111d39190613e2c565b6001600160a01b03166370a08231886040518263ffffffff1660e01b81526004016111fe9190613b22565b602060405180830381865afa15801561121b573d6000803e3d6000fd5b505050506040513d601f19601f8201168201806040525081019061123f91906143f5565b6112499190614344565b1015611268576040516342301c2360e01b815260040160405180910390fd5b505050505050505050565b600080600061128287876107e5565b50905060008061129489898989610db0565b6001600160a01b0316630902f1ac6040518163ffffffff1660e01b8152600401606060405180830381865afa1580156112d1573d6000803e3d6000fd5b505050506040513d601f19601f820116820180604052508101906112f5919061442b565b5091509150826001600160a01b0316896001600160a01b03161461131a57808261131d565b81815b909a909950975050505050505050565b600061133c6020870187613e2c565b905060006113506040880160208901613e2c565b90508861135d8989612b21565b6000816001600160a01b0316846001600160a01b0316146114ae576040516370a0823160e01b81526001600160a01b038516906370a08231906113a4903090600401613b22565b602060405180830381865afa1580156113c1573d6000803e3d6000fd5b505050506040513d601f19601f820116820180604052508101906113e591906143f5565b90506001600160a01b03821688886113fe600182614344565b81811061140d5761140d614357565b90506080020160200160208101906114259190613e2c565b6001600160a01b03161461144c576040516309d41c6760e31b815260040160405180910390fd5b6114ae84828b608001358b8b808060200260200160405190810160405280939291908181526020016000905b828210156114a45761149560808302860136819003810190614312565b81526020019060010190611478565b5050505050612c88565b816001600160a01b0316836001600160a01b0316146115f3576040516370a0823160e01b81526001600160a01b038416906370a08231906114f3903090600401613b22565b602060405180830381865afa158015611510573d6000803e3d6000fd5b505050506040513d601f19601f8201168201806040525081019061153491906143f5565b90506001600160a01b038216868661154d600182614344565b81811061155c5761155c614357565b90506080020160200160208101906115749190613e2c565b6001600160a01b03161461159b576040516332b2410360e21b815260040160405180910390fd5b6115f383828b60a001358989808060200260200160405190810160405280939291908181526020016000905b828210156114a4576115e460808302860136819003810190614312565b815260200190600101906115c7565b6115fc8b612d6a565b5050505050505050505050565b7f00000000000000000000000000000000000000000000000000000000000000006001600160a01b031661163b6120d2565b6001600160a01b03161461166257604051638b906c9760e01b815260040160405180910390fd5b6000546001600160a01b03161561168c576040516354c106e160e11b815260040160405180910390fd5b6001600160a01b0381166116b35760405163d92e233d60e01b815260040160405180910390fd5b600080546001600160a01b0319166001600160a01b0392909216919091179055565b6000806000846001600160a01b03166379bc57d58989896040518463ffffffff1660e01b815260040161170a93929190614459565b602060405180830381865afa158015611727573d6000803e3d6000fd5b505050506040513d601f19601f8201168201806040525081019061174b919061440e565b90506001600160a01b038116611768576000809250925050611814565b6000806117778a8a8a8a611273565b915091506000836001600160a01b03166318160ddd6040518163ffffffff1660e01b8152600401602060405180830381865afa1580156117bb573d6000803e3d6000fd5b505050506040513d601f19601f820116820180604052508101906117df91906143f5565b9050806117ec848961447d565b6117f691906144aa565b955080611803838961447d565b61180d91906144aa565b9450505050505b9550959350505050565b60608161182a816120ae565b61187c888787808060200260200160405190810160405280939291908181526020016000905b828210156104335761186d60808302860136819003810190614312565b81526020019060010190611850565b915086826001845161188e9190614344565b8151811061189e5761189e614357565b602002602001015110156118c5576040516342301c2360e01b815260040160405180910390fd5b611922868660008181106118db576118db614357565b6118f19260206080909202019081019150613e2c565b6118f96120d2565b61190f898960008181106106c6576106c6614357565b8560008151811061077057610770614357565b611974828787808060200260200160405190810160405280939291908181526020016000905b828210156107cf5761196560808302860136819003810190614312565b81526020019060010190611948565b509695505050505050565b600080600080866001600160a01b03166379bc57d58b8b8b6040518463ffffffff1660e01b81526004016119b593929190614459565b602060405180830381865afa1580156119d2573d6000803e3d6000fd5b505050506040513d601f19601f820116820180604052508101906119f6919061440e565b9050600080806001600160a01b03841615611a8157836001600160a01b03166318160ddd6040518163ffffffff1660e01b8152600401602060405180830381865afa158015611a49573d6000803e3d6000fd5b505050506040513d601f19601f82011682018060405250810190611a6d91906143f5565b9050611a7b8d8d8d8d611273565b90935091505b82158015611a8d575081155b15611abe578896508795506103e8611aad611aa8888a61447d565b612e06565b611ab79190614344565b9450611b51565b6000611acb8a8585612ef5565b9050888111611b1357899750955085611b0c84611ae8848b61447d565b611af291906144aa565b84611afd858b61447d565b611b0791906144aa565b612f5e565b9550611b4f565b6000611b208a8587612ef5565b9850899750889050611b4b85611b36858461447d565b611b4091906144aa565b85611afd868c61447d565b9650505b505b5050505096509650969350505050565b600080611b718585600186610db0565b90506000856001600160a01b031663313ce5676040518163ffffffff1660e01b8152600401602060405180830381865afa158015611bb3573d6000803e3d6000fd5b505050506040513d601f19601f82011682018060405250810190611bd791906144cc565b611be290600a6145d3565b90506000856001600160a01b031663313ce5676040518163ffffffff1660e01b8152600401602060405180830381865afa158015611c24573d6000803e3d6000fd5b505050506040513d601f19601f82011682018060405250810190611c4891906144cc565b611c5390600a6145d3565b6040516378a051ad60e11b815290915082906000906001600160a01b0386169063f140a35a90611c899085908d906004016143de565b602060405180830381865afa158015611ca6573d6000803e3d6000fd5b505050506040513d601f19601f82011682018060405250810190611cca91906143f5565b9050600080611cde8b8b60018c888861197f565b50909250905085611cf783670de0b6b3a764000061447d565b611d0191906144aa565b915084611d1682670de0b6b3a764000061447d565b611d2091906144aa565b905084611d3584670de0b6b3a764000061447d565b611d3f91906144aa565b925085611d5485670de0b6b3a764000061447d565b611d5e91906144aa565b9350808285611d7586670de0b6b3a764000061447d565b611d7f91906144aa565b611d89919061447d565b611d9391906144aa565b9750611da788670de0b6b3a76400006143ae565b611db985670de0b6b3a764000061447d565b611dc391906144aa565b9b9a5050505050505050505050565b600080611ddf8a8c6143ae565b9050611df48c611ded6120d2565b3084612152565b611e048c8c8c8c8c8c8c8c612f78565b611e0d8961322d565b6000611e52611e1f60208c018c613e2c565b611e2f60408d0160208e01613e2c565b611e3f60608e0160408f01614391565b8d60600160208101906102c69190613e2c565b90508315611ffb576000546001600160a01b0316611e835760405163475d777760e11b815260040160405180910390fd5b6040516335313c2160e11b81526001600160a01b03821690636a62784290611eaf903090600401613b22565b6020604051808303816000875af1158015611ece573d6000803e3d6000fd5b505050506040513d601f19601f82011682018060405250810190611ef291906143f5565b6000805460405163b9a09fd560e01b815292955090916001600160a01b039091169063b9a09fd590611f28908590600401613b22565b602060405180830381865afa158015611f45573d6000803e3d6000fd5b505050506040513d601f19601f82011682018060405250810190611f69919061440e565b9050611f7f6001600160a01b03831682866133a1565b604051636e553f6560e01b81526001600160a01b03821690636e553f6590611fad9087908a906004016143de565b600060405180830381600087803b158015611fc757600080fd5b505af1158015611fdb573d6000803e3d6000fd5b50611ff5925050506001600160a01b0383168260006133a1565b5061206d565b6040516335313c2160e11b81526001600160a01b03821690636a62784290612027908890600401613b22565b6020604051808303816000875af1158015612046573d6000803e3d6000fd5b505050506040513d601f19601f8201168201806040525081019061206a91906143f5565b92505b6120768d612d6a565b61208b61208660208c018c613e2c565b612d6a565b61209e61208660408c0160208d01613e2c565b50509a9950505050505050505050565b428110156120cf57604051630407b05b60e31b815260040160405180910390fd5b50565b60006120dd33610b4a565b156120ef575060131936013560601c90565b503390565b61214c846323b872dd60e01b858585604051602401612115939291906145e2565b60408051601f198184030181529190526020810180516001600160e01b03166001600160e01b0319909316929092179091526134aa565b50505050565b6000846001600160a01b03163b1161216957600080fd5b600080856001600160a01b03166323b872dd60e01b868686604051602401612193939291906145e2565b60408051601f198184030181529181526020820180516001600160e01b03166001600160e01b03199094169390931790925290516121d1919061462a565b6000604051808303816000865af19150503d806000811461220e576040519150601f19603f3d011682016040523d82523d6000602084013e612213565b606091505b509150915081801561223d57508051158061223d57508080602001905181019061223d91906143c1565b61224657600080fd5b505050505050565b815160005b818110156124f05760006122a185838151811061227257612272614357565b60200260200101516000015186848151811061229057612290614357565b6020026020010151602001516107e5565b5090506000866122b28460016143ae565b815181106122c2576122c2614357565b60200260200101519050600080836001600160a01b03168886815181106122eb576122eb614357565b6020026020010151600001516001600160a01b03161461230d57826000612311565b6000835b915091506000600189516123259190614344565b861061233157876123df565b6123df896123408860016143ae565b8151811061235057612350614357565b6020026020010151600001518a88600161236a91906143ae565b8151811061237a5761237a614357565b6020026020010151602001518b89600161239491906143ae565b815181106123a4576123a4614357565b6020026020010151604001518c8a60016123be91906143ae565b815181106123ce576123ce614357565b602002602001015160600151610db0565b90506124508987815181106123f6576123f6614357565b6020026020010151600001518a888151811061241457612414614357565b6020026020010151602001518b898151811061243257612432614357565b6020026020010151604001518c8a815181106123ce576123ce614357565b6001600160a01b031663022c0d9f84848460006040519080825280601f01601f19166020018201604052801561248d576020820181803683370190505b506040518563ffffffff1660e01b81526004016124ad9493929190614672565b600060405180830381600087803b1580156124c757600080fd5b505af11580156124db573d6000803e3d6000fd5b50506001909701965061225395505050505050565b5050505050565b6000808386101561251b57604051636e35977960e11b815260040160405180910390fd5b8285101561253c5760405163acee051360e01b815260040160405180910390fd5b6040516379bc57d560e01b81526000906001600160a01b037f000000000000000000000000000000000000000000000000000000000000000016906379bc57d59061258f908d908d908d90600401614459565b602060405180830381865afa1580156125ac573d6000803e3d6000fd5b505050506040513d601f19601f820116820180604052508101906125d0919061440e565b90506001600160a01b038116612676576040516301b5fcad60e51b81526001600160a01b037f000000000000000000000000000000000000000000000000000000000000000016906336bf95a090612630908d908d908d90600401614459565b6020604051808303816000875af115801561264f573d6000803e3d6000fd5b505050506040513d601f19601f82011682018060405250810190612673919061440e565b90505b6000806126a58c8c8c7f0000000000000000000000000000000000000000000000000000000000000000611273565b915091508160001480156126b7575080155b156126c757889450879350612751565b60006126d48a8484612ef5565b905088811161270957868110156126fe57604051630d32418960e21b815260040160405180910390fd5b89955093508361274f565b60006127168a8486612ef5565b90508a811115612728576127286146a9565b88811015612749576040516323d9bb0560e21b815260040160405180910390fd5b95508894505b505b50505097509795505050505050565b815160005b8181101561214c57600061278485838151811061227257612272614357565b50905060006127f886848151811061279e5761279e614357565b6020026020010151600001518785815181106127bc576127bc614357565b6020026020010151602001518886815181106127da576127da614357565b6020026020010151604001518987815181106123ce576123ce614357565b9050600080600061287f89878151811061281457612814614357565b6020026020010151600001518a888151811061283257612832614357565b6020026020010151602001518b898151811061285057612850614357565b6020026020010151604001518c8a8151811061286e5761286e614357565b602002602001015160600151611273565b5090508089878151811061289557612895614357565b6020026020010151600001516001600160a01b03166370a08231866040518263ffffffff1660e01b81526004016128cc9190613b22565b602060405180830381865afa1580156128e9573d6000803e3d6000fd5b505050506040513d601f19601f8201168201806040525081019061290d91906143f5565b6129179190614344565b925050826001600160a01b031663f140a35a838a888151811061293c5761293c614357565b6020026020010151600001516040518363ffffffff1660e01b81526004016129659291906143de565b602060405180830381865afa158015612982573d6000803e3d6000fd5b505050506040513d601f19601f820116820180604052508101906129a691906143f5565b9050600080856001600160a01b03168a88815181106129c7576129c7614357565b6020026020010151600001516001600160a01b0316146129e9578260006129ed565b6000835b91509150600060018b51612a019190614344565b8810612a0d5789612a9a565b612a9a8b612a1c8a60016143ae565b81518110612a2c57612a2c614357565b6020026020010151600001518c8a6001612a4691906143ae565b81518110612a5657612a56614357565b6020026020010151602001518d8b6001612a7091906143ae565b81518110612a8057612a80614357565b6020026020010151604001518e8c60016123be91906143ae565b6040805160008152602081019182905263022c0d9f60e01b9091529091506001600160a01b0387169063022c0d9f90612adc9086908690869060248101614672565b600060405180830381600087803b158015612af657600080fd5b505af1158015612b0a573d6000803e3d6000fd5b505060019099019850612765975050505050505050565b6000612b306020830183613e2c565b90506000612b446040840160208501613e2c565b90506000612b6d8383612b5d6060880160408901614391565b6102c66080890160608a01613e2c565b9050612b846001600160a01b0382163383886120f4565b6000612b9084846107e5565b509050600080836001600160a01b03166389afcb44306040518263ffffffff1660e01b8152600401612bc29190613b22565b60408051808303816000875af1158015612be0573d6000803e3d6000fd5b505050506040513d601f19601f82011682018060405250810190612c04919061436d565b91509150600080846001600160a01b0316886001600160a01b031614612c2b578284612c2e565b83835b915091508860c00135821015612c57576040516323d9bb0560e21b815260040160405180910390fd5b8860e00135811015612c7c57604051630d32418960e21b815260040160405180910390fd5b50505050505050505050565b6000612c948483610870565b9050828160018351612ca69190614344565b81518110612cb657612cb6614357565b60200260200101511015612cdd576040516342301c2360e01b815260040160405180910390fd5b6000612d5283600081518110612cf557612cf5614357565b60200260200101516000015184600081518110612d1457612d14614357565b60200260200101516020015185600081518110612d3357612d33614357565b602002602001015160400151866000815181106123ce576123ce614357565b9050612d5f86828761357f565b61224682843061224e565b6000612d746120d2565b90506000826001600160a01b03166370a08231306040518263ffffffff1660e01b8152600401612da49190613b22565b602060405180830381865afa158015612dc1573d6000803e3d6000fd5b505050506040513d601f19601f82011682018060405250810190612de591906143f5565b90508015612e0157612e016001600160a01b0384168383613671565b505050565b600081600003612e1857506000919050565b60006001612e2584613690565b901c6001901b90506001818481612e3e57612e3e614494565b048201901c90506001818481612e5657612e56614494565b048201901c90506001818481612e6e57612e6e614494565b048201901c90506001818481612e8657612e86614494565b048201901c90506001818481612e9e57612e9e614494565b048201901c90506001818481612eb657612eb6614494565b048201901c90506001818481612ece57612ece614494565b048201901c9050612eee81828581612ee857612ee8614494565b04612f5e565b9392505050565b600083600003612f1857604051632ca2f52b60e11b815260040160405180910390fd5b821580612f23575081155b15612f415760405163bb55fd2760e01b815260040160405180910390fd5b82612f4c838661447d565b612f5691906144aa565b949350505050565b6000818310612f6d5781612f6f565b825b90505b92915050565b6000612f876020870187613e2c565b90506000612f9b6040880160208901613e2c565b90506000612faf6060890160408a01614391565b90506000612fc360808a0160608b01613e2c565b90506000612fd385858585610db0565b9050600080826001600160a01b0316630902f1ac6040518163ffffffff1660e01b8152600401606060405180830381865afa158015613016573d6000803e3d6000fd5b505050506040513d601f19601f8201168201806040525081019061303a919061442b565b50915091506103e88211158061305257506103e88111155b15613070576040516302721e1f60e61b815260040160405180910390fd5b5050846001600160a01b03168d6001600160a01b031614613148576001600160a01b03851689896130a2600182614344565b8181106130b1576130b1614357565b90506080020160200160208101906130c99190613e2c565b6001600160a01b0316146130f0576040516309d41c6760e31b815260040160405180910390fd5b6131488d8d8c608001358c8c808060200260200160405190810160405280939291908181526020016000905b828210156114a45761313960808302860136819003810190614312565b8152602001906001019061311c565b836001600160a01b03168d6001600160a01b03161461321e576001600160a01b0384168787613178600182614344565b81811061318757613187614357565b905060800201602001602081019061319f9190613e2c565b6001600160a01b0316146131c6576040516332b2410360e21b815260040160405180910390fd5b61321e8d8c8c60a001358a8a808060200260200160405190810160405280939291908181526020016000905b828210156114a45761320f60808302860136819003810190614312565b815260200190600101906131f2565b50505050505050505050505050565b600061323c6020830183613e2c565b905060006132506040840160208501613e2c565b905060006132646060850160408601614391565b905060006132786080860160608701613e2c565b9050600061328885858585610db0565b905060008061337d878787878b6001600160a01b03166370a08231306040518263ffffffff1660e01b81526004016132c09190613b22565b602060405180830381865afa1580156132dd573d6000803e3d6000fd5b505050506040513d601f19601f8201168201806040525081019061330191906143f5565b6040516370a0823160e01b81526001600160a01b038d16906370a082319061332d903090600401613b22565b602060405180830381865afa15801561334a573d6000803e3d6000fd5b505050506040513d601f19601f8201168201806040525081019061336e91906143f5565b8e60c001358f60e00135613724565b9150915061338c87848461357f565b61339786848361357f565b5050505050505050565b80158061341b5750604051636eb1769f60e11b81523060048201526001600160a01b03838116602483015284169063dd62ed3e90604401602060405180830381865afa1580156133f5573d6000803e3d6000fd5b505050506040513d601f19601f8201168201806040525081019061341991906143f5565b155b61348b5760405162461bcd60e51b815260206004820152603660248201527f5361666545524332303a20617070726f76652066726f6d206e6f6e2d7a65726f60448201527520746f206e6f6e2d7a65726f20616c6c6f77616e636560501b60648201526084015b60405180910390fd5b612e018363095ea7b360e01b84846040516024016121159291906146bf565b60006134ff826040518060400160405280602081526020017f5361666545524332303a206c6f772d6c6576656c2063616c6c206661696c6564815250856001600160a01b03166138339092919063ffffffff16565b905080516000148061352057508080602001905181019061352091906143c1565b612e015760405162461bcd60e51b815260206004820152602a60248201527f5361666545524332303a204552433230206f7065726174696f6e20646964206e6044820152691bdd081cdd58d8d9595960b21b6064820152608401613482565b6000836001600160a01b03163b1161359657600080fd5b600080846001600160a01b031663a9059cbb60e01b85856040516024016135be9291906146bf565b60408051601f198184030181529181526020820180516001600160e01b03166001600160e01b03199094169390931790925290516135fc919061462a565b6000604051808303816000865af19150503d8060008114613639576040519150601f19603f3d011682016040523d82523d6000602084013e61363e565b606091505b509150915081801561366857508051158061366857508080602001905181019061366891906143c1565b6124f057600080fd5b612e018363a9059cbb60e01b84846040516024016121159291906146bf565b600080608083901c156136a557608092831c92015b604083901c156136b757604092831c92015b602083901c156136c957602092831c92015b601083901c156136db57601092831c92015b600883901c156136ed57600892831c92015b600483901c156136ff57600492831c92015b600283901c1561371157600292831c92015b600183901c15612f725760010192915050565b6000808386101561374857604051636e35977960e11b815260040160405180910390fd5b828510156137695760405163acee051360e01b815260040160405180910390fd5b6000806137788c8c8c8c611273565b9150915081600014801561378a575080155b1561379a57879350869250613824565b60006137a7898484612ef5565b90508781116137dc57858110156137d157604051630d32418960e21b815260040160405180910390fd5b889450925082613822565b60006137e9898486612ef5565b9050898111156137fb576137fb6146a9565b8781101561381c576040516323d9bb0560e21b815260040160405180910390fd5b94508793505b505b50509850989650505050505050565b6060612f56848460008585600080866001600160a01b0316858760405161385a919061462a565b60006040518083038185875af1925050503d8060008114613897576040519150601f19603f3d011682016040523d82523d6000602084013e61389c565b606091505b50915091506138ad878383876138b8565b979650505050505050565b60608315613927578251600003613920576001600160a01b0385163b6139205760405162461bcd60e51b815260206004820152601d60248201527f416464726573733a2063616c6c20746f206e6f6e2d636f6e74726163740000006044820152606401613482565b5081612f56565b612f56838381511561393c5781518083602001fd5b8060405162461bcd60e51b815260040161348291906146d8565b6001600160a01b03811681146120cf57600080fd5b803561397681613956565b919050565b80151581146120cf57600080fd5b60008083601f84011261399b57600080fd5b5081356001600160401b038111156139b257600080fd5b6020830191508360208260071b850101111561086957600080fd5b6000806000806000806000806000806101008b8d0312156139ed57600080fd5b8a356139f881613956565b995060208b0135613a0881613956565b985060408b0135613a188161397b565b975060608b0135613a2881613956565b965060808b0135955060a08b0135945060c08b01356001600160401b0380821115613a5257600080fd5b613a5e8e838f01613989565b909650945060e08d0135915080821115613a7757600080fd5b50613a848d828e01613989565b915080935050809150509295989b9194979a5092959850565b600080600080600080600080610100898b031215613aba57600080fd5b8835613ac581613956565b97506020890135613ad581613956565b96506040890135613ae58161397b565b9550606089013594506080890135935060a0890135925060c0890135613b0a81613956565b8092505060e089013590509295985092959890939650565b6001600160a01b0391909116815260200190565b634e487b7160e01b600052604160045260246000fd5b604051601f8201601f191681016001600160401b0381118282101715613b7457613b74613b36565b604052919050565b60006001600160401b03821115613b9557613b95613b36565b5060051b60200190565b600080600080600060808688031215613bb757600080fd5b85356001600160401b0380821115613bce57600080fd5b818801915088601f830112613be257600080fd5b81356020613bf7613bf283613b7c565b613b4c565b82815260059290921b8401810191818101908c841115613c1657600080fd5b948201945b83861015613c3457853582529482019490820190613c1b565b99505089013592505080821115613c4a57600080fd5b50613c5788828901613989565b9095509350613c6a90506040870161396b565b949793965091946060013592915050565b6020808252825182820181905260009190848201906040850190845b81811015613cb357835183529284019291840191600101613c97565b50909695505050505050565b60008060408385031215613cd257600080fd5b8235613cdd81613956565b91506020830135613ced81613956565b809150509250929050565b600060808284031215613d0a57600080fd5b604051608081018181106001600160401b0382111715613d2c57613d2c613b36565b6040529050808235613d3d81613956565b81526020830135613d4d81613956565b60208201526040830135613d608161397b565b60408201526060830135613d7381613956565b6060919091015292915050565b60008060408385031215613d9357600080fd5b823591506020808401356001600160401b03811115613db157600080fd5b8401601f81018613613dc257600080fd5b8035613dd0613bf282613b7c565b8082825260208201915060208360071b850101925088831115613df257600080fd5b6020840193505b82841015613e1d57613e0b8985613cf8565b82528482019150608084019350613df9565b80955050505050509250929050565b600060208284031215613e3e57600080fd5b8135612eee81613956565b60008060008060008060008060006101208a8c031215613e6857600080fd5b8935613e7381613956565b985060208a0135613e8381613956565b975060408a0135613e938161397b565b965060608a0135955060808a0135945060a08a0135935060c08a0135925060e08a0135613ebf81613956565b809250506101008a013590509295985092959850929598565b600080600080600080600080600060e08a8c031215613ef657600080fd5b8935613f0181613956565b985060208a0135613f1181613956565b975060408a0135613f218161397b565b965060608a0135613f3181613956565b955060808a0135945060a08a01356001600160401b0380821115613f5457600080fd5b613f608d838e01613989565b909650945060c08c0135915080821115613f7957600080fd5b50613f868c828d01613989565b915080935050809150509295985092959850929598565b60008060008060808587031215613fb357600080fd5b8435613fbe81613956565b93506020850135613fce81613956565b92506040850135613fde8161397b565b91506060850135613fee81613956565b939692955090935050565b60008060008060008060a0878903121561401257600080fd5b863595506020870135945060408701356001600160401b0381111561403657600080fd5b61404289828a01613989565b909550935050606087013561405681613956565b80925050608087013590509295509295509295565b6000610100828403121561407e57600080fd5b50919050565b6000806000806000806000610180888a0312156140a057600080fd5b87356140ab81613956565b9650602088013595506140c18960408a0161406b565b94506101408801356001600160401b03808211156140de57600080fd5b6140ea8b838c01613989565b90965094506101608a013591508082111561410457600080fd5b506141118a828b01613989565b989b979a50959850939692959293505050565b600080600080600060a0868803121561413c57600080fd5b853561414781613956565b9450602086013561415781613956565b935060408601356141678161397b565b9250606086013561417781613956565b949793965091946080013592915050565b60008060008060008060c087890312156141a157600080fd5b86356141ac81613956565b955060208701356141bc81613956565b945060408701356141cc8161397b565b935060608701356141dc81613956565b9598949750929560808101359460a0909101359350915050565b60008060006060848603121561420b57600080fd5b833561421681613956565b9250602084013561422681613956565b9150604084013561423681613956565b809150509250925092565b6000806000806000806000806000806101e08b8d03121561426157600080fd5b8a3561426c81613956565b995060208b0135985060408b013597506142898c60608d0161406b565b96506101608b01356001600160401b03808211156142a657600080fd5b6142b28e838f01613989565b90985096506101808d01359150808211156142cc57600080fd5b506142d98d828e01613989565b9095509350506101a08b01356142ee81613956565b91506101c08b01356142ff8161397b565b809150509295989b9194979a5092959850565b60006080828403121561432457600080fd5b612f6f8383613cf8565b634e487b7160e01b600052601160045260246000fd5b81810381811115612f7257612f7261432e565b634e487b7160e01b600052603260045260246000fd5b6000806040838503121561438057600080fd5b505080516020909101519092909150565b6000602082840312156143a357600080fd5b8135612eee8161397b565b80820180821115612f7257612f7261432e565b6000602082840312156143d357600080fd5b8151612eee8161397b565b9182526001600160a01b0316602082015260400190565b60006020828403121561440757600080fd5b5051919050565b60006020828403121561442057600080fd5b8151612eee81613956565b60008060006060848603121561444057600080fd5b8351925060208401519150604084015190509250925092565b6001600160a01b039384168152919092166020820152901515604082015260600190565b8082028115828204841417612f7257612f7261432e565b634e487b7160e01b600052601260045260246000fd5b6000826144c757634e487b7160e01b600052601260045260246000fd5b500490565b6000602082840312156144de57600080fd5b815160ff81168114612eee57600080fd5b600181815b8085111561452a5781600019048211156145105761451061432e565b8085161561451d57918102915b93841c93908002906144f4565b509250929050565b60008261454157506001612f72565b8161454e57506000612f72565b8160018114614564576002811461456e5761458a565b6001915050612f72565b60ff84111561457f5761457f61432e565b50506001821b612f72565b5060208310610133831016604e8410600b84101617156145ad575081810a612f72565b6145b783836144ef565b80600019048211156145cb576145cb61432e565b029392505050565b6000612f6f60ff841683614532565b6001600160a01b039384168152919092166020820152604081019190915260600190565b60005b83811015614621578181015183820152602001614609565b50506000910152565b6000825161463c818460208701614606565b9190910192915050565b6000815180845261465e816020860160208601614606565b601f01601f19169290920160200192915050565b84815283602082015260018060a01b038316604082015260806060820152600061469f6080830184614646565b9695505050505050565b634e487b7160e01b600052600160045260246000fd5b6001600160a01b03929092168252602082015260400190565b602081526000612f6f602083018461464656fea26469706673582212207c0b1ad1b2ad6fff7ac59581921e5119660999d2e49a525b12c1513c4e82aae564736f6c63430008180033",
  "devdoc": {
    "author": "velodrome.finance, @pegahcarter",
    "kind": "dev",
    "methods": {
      "UNSAFE_swapExactTokensForTokens(uint256[],(address,address,bool,address)[],address,uint256)": {
        "params": {
          "deadline": "Deadline to receive tokens",
          "routes": "Array of trade routes used in the swap",
          "to": "Recipient of the tokens received"
        },
        "returns": {
          "_0": "amounts     Array of amounts to swap  per route"
        }
      },
      "addLiquidity(address,address,bool,uint256,uint256,uint256,uint256,address,uint256)": {
        "params": {
          "amountADesired": "Amount of tokenA desired to deposit",
          "amountAMin": "Minimum amount of tokenA to deposit",
          "amountBDesired": "Amount of tokenB desired to deposit",
          "amountBMin": "Minimum amount of tokenB to deposit",
          "deadline": "Deadline to receive liquidity",
          "stable": "True if pool is stable, false if volatile",
          "to": "Recipient of liquidity token",
          "tokenA": ".",
          "tokenB": "."
        },
        "returns": {
          "amountA": "        Amount of tokenA to actually deposit",
          "amountB": "        Amount of tokenB to actually deposit",
          "liquidity": "      Amount of liquidity token returned from deposit"
        }
      },
      "generateZapInParams(address,address,bool,address,uint256,uint256,(address,address,bool,address)[],(address,address,bool,address)[])": {
        "details": "Output token refers to the token you want to zap in from.",
        "params": {
          "_factory": ".",
          "amountInA": "Amount of input token you wish to send down routesA",
          "amountInB": "Amount of input token you wish to send down routesB",
          "routesA": "Route used to convert input token to tokenA",
          "routesB": "Route used to convert input token to tokenB",
          "stable": ".",
          "tokenA": ".",
          "tokenB": "."
        },
        "returns": {
          "amountAMin": "     Minimum amount of tokenA expected from depositing liquidity.",
          "amountBMin": "     Minimum amount of tokenB expected from depositing liquidity.",
          "amountOutMinA": "  Minimum output expected from swapping input token to tokenA.",
          "amountOutMinB": "  Minimum output expected from swapping input token to tokenB."
        }
      },
      "generateZapOutParams(address,address,bool,address,uint256,(address,address,bool,address)[],(address,address,bool,address)[])": {
        "details": "Output token refers to the token you want to zap out of.",
        "params": {
          "_factory": ".",
          "liquidity": "Amount of liquidity being zapped out of into a given output token.",
          "routesA": "Route used to convert tokenA into output token.",
          "routesB": "Route used to convert tokenB into output token.",
          "stable": ".",
          "tokenA": ".",
          "tokenB": "."
        },
        "returns": {
          "amountAMin": "     Minimum amount of tokenA expected from withdrawing liquidity.",
          "amountBMin": "     Minimum amount of tokenB expected from withdrawing liquidity.",
          "amountOutMinA": "  Minimum output expected from swapping tokenA into output token.",
          "amountOutMinB": "  Minimum output expected from swapping tokenB into output token."
        }
      },
      "getReserves(address,address,bool,address)": {
        "params": {
          "_factory": "Address of PoolFactory for tokenA and tokenB",
          "stable": "True if pool is stable, false if volatile",
          "tokenA": ".",
          "tokenB": "."
        },
        "returns": {
          "reserveA": "   Amount of reserves of the sorted token A",
          "reserveB": "   Amount of reserves of the sorted token B"
        }
      },
      "poolFor(address,address,bool,address)": {
        "details": "Returns a randomly generated address for a nonexistent pool",
        "params": {
          "_factory": "Address of factory which created the pool",
          "stable": "True if pool is stable, false if volatile",
          "tokenA": "Address of token to query",
          "tokenB": "Address of token to query"
        }
      },
      "quoteAddLiquidity(address,address,bool,address,uint256,uint256)": {
        "params": {
          "_factory": "Address of PoolFactory for tokenA and tokenB",
          "amountADesired": "Amount of tokenA desired to deposit",
          "amountBDesired": "Amount of tokenB desired to deposit",
          "stable": "True if pool is stable, false if volatile",
          "tokenA": ".",
          "tokenB": "."
        },
        "returns": {
          "amountA": "        Amount of tokenA to actually deposit",
          "amountB": "        Amount of tokenB to actually deposit",
          "liquidity": "      Amount of liquidity token returned from deposit"
        }
      },
      "quoteRemoveLiquidity(address,address,bool,address,uint256)": {
        "params": {
          "_factory": "Address of PoolFactory for tokenA and tokenB",
          "liquidity": "Amount of liquidity to remove",
          "stable": "True if pool is stable, false if volatile",
          "tokenA": ".",
          "tokenB": "."
        },
        "returns": {
          "amountA": "    Amount of tokenA received",
          "amountB": "    Amount of tokenB received"
        }
      },
      "quoteStableLiquidityRatio(address,address,address)": {
        "details": "Returns stable liquidity ratio of B to (A + B).      E.g. if ratio is 0.4, it means there is more of A than there is of B.      Therefore you should deposit more of token A than B.",
        "params": {
          "factory": "Factory that created stable pool.",
          "tokenA": "tokenA of stable pool you are zapping into.",
          "tokenB": "tokenB of stable pool you are zapping into."
        },
        "returns": {
          "ratio": "  Ratio of token0 to token1 required to deposit into zap."
        }
      },
      "removeLiquidity(address,address,bool,uint256,uint256,uint256,address,uint256)": {
        "params": {
          "amountAMin": "Minimum amount of tokenA to receive",
          "amountBMin": "Minimum amount of tokenB to receive",
          "deadline": "Deadline to remove liquidity",
          "liquidity": "Amount of liquidity to remove",
          "stable": "True if pool is stable, false if volatile",
          "to": "Recipient of tokens received",
          "tokenA": ".",
          "tokenB": "."
        },
        "returns": {
          "amountA": "    Amount of tokenA received",
          "amountB": "    Amount of tokenB received"
        }
      },
      "sortTokens(address,address)": {
        "params": {
          "tokenA": "Address of token to sort",
          "tokenB": "Address of token to sort"
        },
        "returns": {
          "token0": " Lower address value between tokenA and tokenB",
          "token1": " Higher address value between tokenA and tokenB"
        }
      },
      "swapExactTokensForTokens(uint256,uint256,(address,address,bool,address)[],address,uint256)": {
        "params": {
          "amountIn": "Amount of token in",
          "amountOutMin": "Minimum amount of desired token received",
          "deadline": "Deadline to receive tokens",
          "routes": "Array of trade routes used in the swap",
          "to": "Recipient of the tokens received"
        },
        "returns": {
          "amounts": "    Array of amounts returned per route"
        }
      },
      "swapExactTokensForTokensSupportingFeeOnTransferTokens(uint256,uint256,(address,address,bool,address)[],address,uint256)": {
        "params": {
          "amountIn": "Amount of token in",
          "amountOutMin": "Minimum amount of desired token received",
          "deadline": "Deadline to receive tokens",
          "routes": "Array of trade routes used in the swap",
          "to": "Recipient of the tokens received"
        }
      },
      "zapIn(address,uint256,uint256,(address,address,bool,address,uint256,uint256,uint256,uint256),(address,address,bool,address)[],(address,address,bool,address)[],address,bool)": {
        "params": {
          "amountInA": "Amount of input token you wish to send down routesA",
          "amountInB": "Amount of input token you wish to send down routesB",
          "routesA": "Route used to convert input token to tokenA",
          "routesB": "Route used to convert input token to tokenB",
          "stake": "Auto-stake liquidity in corresponding gauge.",
          "to": "Address you wish to mint liquidity to.",
          "tokenIn": "Token you are zapping in from (i.e. input token).",
          "zapInPool": "Contains zap struct information. See Zap struct."
        },
        "returns": {
          "liquidity": "  Amount of LP tokens created from zapping in."
        }
      },
      "zapOut(address,uint256,(address,address,bool,address,uint256,uint256,uint256,uint256),(address,address,bool,address)[],(address,address,bool,address)[])": {
        "params": {
          "liquidity": "Amount of liquidity you wish to remove.",
          "routesA": "Route used to convert tokenA into output token.",
          "routesB": "Route used to convert tokenB into output token.",
          "tokenOut": "Token you are zapping out to (i.e. output token).",
          "zapOutPool": "Contains zap struct information. See Zap struct."
        }
      }
    },
    "title": "Protocol Router",
    "version": 1
  },
  "userdoc": {
    "kind": "user",
    "methods": {
      "UNSAFE_swapExactTokensForTokens(uint256[],(address,address,bool,address)[],address,uint256)": {
        "notice": "Swap one token for another without slippage protection"
      },
      "addLiquidity(address,address,bool,uint256,uint256,uint256,uint256,address,uint256)": {
        "notice": "Add liquidity of two tokens to a Pool"
      },
      "defaultFactory()": {
        "notice": "Address of Protocol PoolFactory.sol"
      },
      "deployer()": {
        "notice": "The address of the Router deployer."
      },
      "factoryRegistry()": {
        "notice": "Address of FactoryRegistry.sol"
      },
      "generateZapInParams(address,address,bool,address,uint256,uint256,(address,address,bool,address)[],(address,address,bool,address)[])": {
        "notice": "Used to generate params required for zapping in.         Zap in => remove liquidity then swap.         Apply slippage to expected swap values to account for changes in reserves in between."
      },
      "generateZapOutParams(address,address,bool,address,uint256,(address,address,bool,address)[],(address,address,bool,address)[])": {
        "notice": "Used to generate params required for zapping out.         Zap out => swap then add liquidity.         Apply slippage to expected liquidity values to account for changes in reserves in between."
      },
      "getAmountsOut(uint256,(address,address,bool,address)[])": {
        "notice": "Perform chained getAmountOut calculations on any number of pools"
      },
      "getReserves(address,address,bool,address)": {
        "notice": "Fetch and sort the reserves for a pool"
      },
      "poolFor(address,address,bool,address)": {
        "notice": "Calculate the address of a pool by its' factory.         Used by all Router functions containing a `Route[]` or `_factory` argument.         Reverts if _factory is not approved by the FactoryRegistry"
      },
      "quoteAddLiquidity(address,address,bool,address,uint256,uint256)": {
        "notice": "Quote the amount deposited into a Pool"
      },
      "quoteRemoveLiquidity(address,address,bool,address,uint256)": {
        "notice": "Quote the amount of liquidity removed from a Pool"
      },
      "quoteStableLiquidityRatio(address,address,address)": {
        "notice": "Used by zapper to determine appropriate ratio of A to B to deposit liquidity. Assumes stable pool."
      },
      "removeLiquidity(address,address,bool,uint256,uint256,uint256,address,uint256)": {
        "notice": "Remove liquidity of two tokens from a Pool"
      },
      "sortTokens(address,address)": {
        "notice": "Sort two tokens by which address value is less than the other"
      },
      "swapExactTokensForTokens(uint256,uint256,(address,address,bool,address)[],address,uint256)": {
        "notice": "Swap one token for another"
      },
      "swapExactTokensForTokensSupportingFeeOnTransferTokens(uint256,uint256,(address,address,bool,address)[],address,uint256)": {
        "notice": "Swap one token for another supporting fee-on-transfer tokens"
      },
      "voter()": {
        "notice": "Address of Voter.sol"
      },
      "zapIn(address,uint256,uint256,(address,address,bool,address,uint256,uint256,uint256,uint256),(address,address,bool,address)[],(address,address,bool,address)[],address,bool)": {
        "notice": "Zap a token A into a pool (B, C). (A can be equal to B or C).         Supports standard ERC20 tokens only (i.e. not fee-on-transfer tokens etc).         Slippage is required for the initial swap.         Additional slippage may be required when adding liquidity as the         price of the token may have changed."
      },
      "zapOut(address,uint256,(address,address,bool,address,uint256,uint256,uint256,uint256),(address,address,bool,address)[],(address,address,bool,address)[])": {
        "notice": "Zap out a pool (B, C) into A.         Supports standard ERC20 tokens only (i.e. not fee-on-transfer tokens etc).         Slippage is required for the removal of liquidity.         Additional slippage may be required on the swap as the         price of the token may have changed."
      }
    },
    "notice": "Router allows routes through any pools created by any factory adhering to univ2 interface.",
    "version": 1
  },
  "storageLayout": {
    "storage": [
      {
        "astId": 1938,
        "contract": "contracts/Router.sol:Router",
        "label": "voter",
        "offset": 0,
        "slot": "0",
        "type": "t_address"
      }
    ],
    "types": {
      "t_address": {
        "encoding": "inplace",
        "label": "address",
        "numberOfBytes": "20"
      }
    }
  }
}